:100000000C942A000C9447000C9447000C94470071
:100010000C9447000C9447000C9447000C94470044
:100020000C9447000C9447000C9447000C94470034
:100030000C9447000C9447000C9447000C94470024
:100040000C9447000C9447000C9447000C94470014
:100050000C94470011241FBECFE5D8E0DEBFCDBF12
:1000600010E0A0E6B0E0E8EEF7E002C005900D92E7
:10007000AA36B107D9F720E0AAE6B0E001C01D9288
:10008000A437B207E1F70E94A0000C94F2030C948D
:1000900000001ABA87E886B9089580E487B986B166
:1000A000806486B9349BFECF86B1806186B984B105
:1000B00095B108950E9449000E944D00BC01990F1E
:1000C000880B990B0E94F90220E030E048EC52E4E2
:1000D0000E94850320E030EC4FE754E40E944F0279
:1000E0009B01AC0160E070E088EC92E40E94E201C8
:1000F0000E94C1022FEF84E39CE021508040904099
:10010000E1F700C0000060936E00089581B381BBE9
:1001100082B382BB8FE39CE90197F1F700C0000036
:1001200082B382BB089581B381BB80B380B3FECF1D
:100130000E9486000E94930087B3846087BB089565
:100140000E949C000E94B40063E082E00E943101A2
:1001500085E690E00E94970180E690E00E9486018B
:100160000E945A000E9498000E94A70180E00E940D
:10017000B70181E00E94C10108951F93CF93DF93DF
:10018000182F80E00E94CB01D0E0C0E020C027E023
:1001900030E02C1B3109812F90E002C095958795A6
:1001A0002A95E2F780FF04C081E00E94D50103C0D8
:1001B00080E00E94D50181E00E94CB01DD0F0E940A
:1001C000DF018111D16080E00E94CB01CF5FC83098
:1001D000F0F28D2FDF91CF911F9108950F931F9310
:1001E000CF93DF938C01D62FC0E007C0F801EC0F4E
:1001F000F11D80810E94BD00CF5FCD17B8F3DF9164
:10020000CF911F910F910895CF93DF93C82FD62FD1
:1002100080E00E94C1018C2F8F7180620E94BD001E
:100220008D2F0E94BD0081E00E94C101DF91CF911E
:10023000089580E00E94C10182EE0E94BD0081E02D
:100240000E94C10160E787E00E94040180E00E94F3
:10025000B7016BE080E00E94040181E00E94B701D9
:10026000089560937300682F85E00E94040160E0A8
:1002700081E10E9404016091730082E10E94040107
:1002800060E083E10E94040160E084E10E940401D7
:1002900060E085E10E94040160E086E10E940401C3
:1002A00066E086E00E94040168E080E00E940401AC
:1002B00063E081E00E94040163E082E00E940401A7
:1002C0006FE484E00E94040160E08CE10E9404017C
:1002D0000E94190108950F931F93CF93DF93C82FA6
:1002E0008B01D42F80E00E94C1018C2F8F7180621E
:1002F0000E94BD006D2FC8010E94EE0081E00E94A7
:10030000C101DF91CF911F910F910895CF93DF939A
:10031000EC0180E00E94B70145E0BE018BE00E9445
:100320006B0181E00E94B701DF91CF910895CF93D7
:10033000DF93EC0145E0BC018AE00E946B0145E0DF
:10034000BE0180E10E946B01DF91CF91089587B3D8
:10035000806887BB87B3806187BB87B3806287BBB8
:1003600087B3886087BB87B38F7B87BB089588235B
:1003700021F087B3806887BB089587B38F7787BBE9
:100380000895882321F087B3806187BB089587B3E0
:100390008F7E87BB0895882321F087B3806287BB57
:1003A000089587B38F7D87BB0895882321F08BB391
:1003B00088608BBB08958BB3877F8BBB089587B311
:1003C000807408955058BB27AA270E94FA010C9404
:1003D0004B030E943D0338F00E94440320F039F49F
:1003E0009F3F19F426F40C943A030EF4E095E7FBD2
:1003F0000C943403E92F0E945C0358F3BA17620788
:1004000073078407950720F079F4A6F50C947E0312
:100410000EF4E0950B2EBA2FA02D0B01B90190011F
:100420000C01CA01A0011124FF27591B99F0593F63
:1004300050F4503E68F11A16F040A22F232F342FAB
:100440004427585FF3CF469537952795A795F040F9
:100450005395C9F77EF41F16BA0B620B730B840B0E
:10046000BAF09150A1F0FF0FBB1F661F771F881FC6
:10047000C2F70EC0BA0F621F731F841F48F487951E
:1004800077956795B795F7959E3F08F0B0CF939510
:10049000880F08F09927EE0F9795879508950E9489
:1004A00063020C944B030E94440358F00E943D03E6
:1004B00040F029F45F3F29F00C94340351110C945F
:1004C0007F030C943A030E945C0368F39923B1F311
:1004D000552391F3951B550BBB27AA27621773076A
:1004E000840738F09F5F5F4F220F331F441FAA1FFE
:1004F000A9F335D00E2E3AF0E0E832D091505040BA
:10050000E695001CCAF72BD0FE2F29D0660F771F67
:10051000881FBB1F261737074807AB07B0E809F04D
:10052000BB0B802DBF01FF2793585F4F3AF09E3FD2
:10053000510578F00C9434030C947F035F3FE4F38F
:10054000983ED4F3869577956795B795F7959F5F15
:10055000C9F7880F911D9695879597F90895E1E061
:10056000660F771F881FBB1F621773078407BA07C0
:1005700020F0621B730B840BBA0BEE1F88F7E0951B
:1005800008950E94C8026894B1110C947F030895E5
:100590000E94640388F09F5798F0B92F9927B751AC
:1005A000B0F0E1F0660F771F881F991F1AF0BA9517
:1005B000C9F714C0B13091F00E947E03B1E00895F4
:1005C0000C947E03672F782F8827B85F39F0B93FE6
:1005D000CCF3869577956795B395D9F73EF49095CA
:1005E0008095709561957F4F8F4F9F4F0895E89448
:1005F00009C097FB3EF490958095709561957F4F6B
:100600008F4F9F4F9923A9F0F92F96E9BB27939518
:10061000F695879577956795B795F111F8CFFAF428
:10062000BB0F11F460FF1BC06F5F7F4F8F4F9F4F59
:1006300016C0882311F096E911C0772321F09EE8B7
:10064000872F762F05C0662371F096E8862F70E01D
:1006500060E02AF09A95660F771F881FDAF7880FF7
:100660009695879597F9089597F99F6780E870E0C8
:1006700060E008959FEF80EC089500240A94161618
:10068000170618060906089500240A941216130680
:10069000140605060895092E0394000C11F488230E
:1006A00052F0BB0F40F4BF2B11F460FF04C06F5F2A
:1006B0007F4F8F4F9F4F089557FD9058440F551F00
:1006C00059F05F3F71F04795880F97FB991F61F0D4
:1006D0009F3F79F087950895121613061406551F4B
:1006E000F2CF4695F1DF08C0161617061806991FB7
:1006F000F1CF86957105610508940895E894BB27AC
:1007000066277727CB0197F908950E9498030C94E8
:100710004B030E943D0338F00E94440320F09523D0
:1007200011F00C9434030C943A0311240C947F03BD
:100730000E945C0370F3959FC1F3950F50E0551F25
:10074000629FF001729FBB27F00DB11D639FAA2726
:10075000F00DB11DAA1F649F6627B00DA11D661F75
:10076000829F2227B00DA11D621F739FB00DA11D96
:10077000621F839FA00D611D221F749F3327A00D50
:10078000611D231F849F600D211D822F762F6A2FEC
:1007900011249F5750409AF0F1F088234AF0EE0F51
:1007A000FF1FBB1F661F771F881F91505040A9F77E
:1007B0009E3F510580F00C9434030C947F035F3FFF
:1007C000E4F3983ED4F3869577956795B795F795BA
:1007D000E7959F5FC1F7FE2B880F911D9695879532
:0807E00097F90895F894FFCF8A
:0A07E800D7D7D7D7D7E7E7E7E7E751
:00000001FF
