:100000000C942A000C9447000C9447000C94470071
:100010000C9447000C9447000C9447000C94C300C8
:100020000C9447000C9447000C9447000C94470034
:100030000C9447000C9468020C9447000C94470001
:100040000C9447000C9447000C9447000C94470014
:100050000C94470011241FBECFE5D8E0DEBFCDBF12
:1000600012E0A0E6B0E0E4E7FAE102C005900D92EC
:10007000A832B107D9F723E0A8E2B2E001C01D928F
:10008000AC33B207E1F70E9480070C94380D0C9452
:10009000000088BB88B38E7D88BB88B3826088BB34
:1000A00085E08A95F1F7000088B38D7F88BB8FEDDE
:1000B0009EE20197F1F700C00000089588BB88B365
:1000C0008F7D88BB88B3836088BB85E08A95F1F714
:1000D000000088B38D7F88BB8FE99FE00197F1F71F
:1000E00000C00000089587B3836287BB8FEF87BB92
:1000F0002FEF89EF90E0215080409040E1F700C061
:10010000000088E30E9449008CE00E94490086E0DC
:100110000E94490081E00E94490080E80E94490055
:1001200008950F931F93CF93DF938C01C0E0D0E02D
:1001300003C00E945E002196F801EC0FFD1F808134
:100140008111F7CFDF91CF911F910F910895CF9338
:10015000DF93EA01813031F4862F8F7080680E942E
:10016000490007C0823029F4862F8F70806C0E946E
:100170004900CE010E949100DF91CF91089581E066
:100180000E94490008951F920F920FB60F921124FA
:100190008F939F9380912E0290912F028C33910523
:1001A0002CF4019690932F0280932E0280912E02C0
:1001B00090912F02CC9781F480912C0290912D0286
:1001C0008C3391052CF4019690932D0280932C0290
:1001D00010922F0210922E0280912C0290912D02EB
:1001E000CC9781F480912A0290912B02883191055D
:1001F0002CF4019690932B0280932A0210922D02E8
:1002000010922C0280912A0290912B02489751F46F
:1002100010922B0210922A0281E090E09093290222
:10022000809328029F918F910F900FBE0F901F9087
:1002300018950F931F93CF93DF93E6EEF2E0828140
:10024000008110E0C181D0E04AE06FED72E090E003
:100250000E94110A4AE065E372E0C8010E94110A97
:100260004AE066E373E0CE010E94110A4FEC50E0D1
:1002700060E081E00E94A7000E94BF002FEF81EEA6
:1002800094E0215080409040E1F700C000008FEDE5
:1002900092E00E9491000E94BF002FEF81EE94E057
:1002A000215080409040E1F700C000004EED50E04A
:1002B00060E081E00E94A7000E94BF002FEF81EE66
:1002C00094E0215080409040E1F700C0000086E3B8
:1002D00093E00E9491000E94BF002FEF81EE94E016
:1002E000215080409040E1F700C000004DEE50E00A
:1002F00060E081E00E94A7000E94BF002FEF81EE26
:1003000094E0215080409040E1F700C0000085E378
:1003100092E00E9491000E94BF002FEF81EE94E0D6
:10032000215080409040E1F700C00000DF91CF9164
:100330001F910F9108950F931F93CF93DF93CDB724
:10034000DEB764970FB6F894DEBF0FBECDBF109234
:100350003503109234039F938F9389EF90E09F931E
:100360008F938E010F5F1F4F1F930F930E943E0AC2
:10037000C8010E9481090F900F900F900F900F906D
:100380000F9064960FB6F894DEBF0FBECDBFDF911D
:10039000CF911F910F910895CF93DF9300D000D09C
:1003A000CDB7DEB72FEF89E698E12150804090402D
:1003B000E1F700C000001092350310923403E09181
:1003C0003403F0913503E65CFD4F80818D3049F0B8
:1003D000E0913403F0913503E65CFD4F80818A3073
:1003E00051F4809134039091350301969093350335
:1003F00080933403E4CF69E171E08AE392E00E94E4
:10040000F709892B59F480E05CC080913403909106
:10041000350301969093350380933403E0913403C0
:10042000F0913503E65CFD4F80818C3271F780914D
:1004300034039091350301969093350380933403F0
:1004400020E030E019C0E0913403F0913503E65C20
:10045000FD4F8081E1E0F0E0EC0FFD1FE20FF31FA4
:1004600080838091340390913503019690933503F6
:10047000809334032F5F3F4FE0913403F0913503B5
:10048000E65CFD4F80818D30F1F6CE0101960E9431
:10049000B9099093330280933202EAE3F2E00190CB
:1004A0000020E9F73197AF014A53524060E070E015
:1004B0008AE392E00E94D709109235031092340328
:1004C00081E00F900F900F900F90DF91CF910895E2
:1004D0001F920F920FB60F9211248F939F93EF9359
:1004E000FF93E0913403F09135038CB1E65CFD4F4E
:1004F0008083809134039091350301969093350366
:100500008093340381E080933402FF91EF919F91B7
:100510008F910F900FBE0F901F901895EF92FF9242
:100520000F931F93CF93DF93CDB7DEB7A3970FB68B
:10053000F894DEBF0FBECDBF8B0110923503109231
:1005400034039F938F938FE191E09F938F93CE011C
:1005500001967C019F938F930E943E0AC7010E94DF
:1005600081099FEF23EC89E0915020408040E1F722
:1005700000C000000F900F900F900F900F900F9001
:10058000E0913403F0913503E65CFD4F80818E33BA
:1005900009F046C010923503109234030F2EFAE38F
:1005A000EF2EF2E0FF2EF02DF70101900020E9F789
:1005B0003197AF014A53524060E070E0C7010E949A
:1005C000D709C8010E9481098AE10E947D099FEF35
:1005D00025EA8EE0915020408040E1F700C0000005
:1005E0001092350310923403F70101900020E9F7CF
:1005F0003197AF014A53524060E070E0C7010E945A
:10060000D709CE010196FC0101900020E9F731974E
:10061000AF01481B590B60E070E00E94D7090AC087
:100620008091340390913503019690933503809324
:100630003403A6CFA3960FB6F894DEBF0FBECDBF8E
:10064000DF91CF911F910F91FF90EF900895CF937D
:10065000DF931092350310923403E0913403F0914C
:100660003503E65CFD4F80818D3049F0E091340325
:10067000F0913503E65CFD4F80818A3051F4809122
:10068000340390913503019690933503809334039E
:10069000E4CF80EC0E944900C0E0D0E019C0E091B6
:1006A0003403F0913503E65CFD4F80810E945E00CB
:1006B0008091340390913503019690933503809394
:1006C00034032196CF30D10519F480E80E94490007
:1006D000E0913403F0913503E65CFD4F80818D306D
:1006E000F1F61092350310923403EAE3F2E0019040
:1006F0000020E9F73197AF014A53524060E070E0C3
:100700008AE392E00E94D709DF91CF910895AF92DA
:10071000BF92CF92DF92EF92FF920F931F93CF93EE
:10072000DF9300D0CDB7DEB7E12CF12C20E6E21646
:100730002AEEF20608F04EC0EAE3F2E00190002053
:10074000E9F73197EA53F2406F01D1F18FE39FE16E
:100750000197F1F700C000009FEFE91AF90AAAE338
:10076000B2E00D900020E9F71197AA53B240EA17C2
:10077000FB0731F51EC08A818983F801E65CFD4FD5
:1007800080818A8342E050E06AE371E0CE01019605
:100790000E94E909892B51F0C501019622E0A216B9
:1007A000B10419F40E94270315C05C010F5F1F4FAD
:1007B00004C000E010E0A12CB12C0C151D05DCF2EA
:1007C0008FE99FE00197F1F700C000009FEFE91A61
:1007D000F90AACCF0F900F90DF91CF911F910F913D
:1007E000FF90EF90DF90CF90BF90AF90089580EC96
:1007F0000E9449008DE391E00E9481092FEF89E674
:1008000098E1215080409040E1F700C0000063E48F
:1008100071E08AE392E00E94F709892B69F10E9456
:10082000870380EAEAE3F2E0DF011D928A95E9F7A7
:10083000BFEF23ED80E3B15020408040E1F700C0DE
:1008400000000E94BF0046E451E060E081E00E94A9
:10085000A70080EC0E94490080E591E00E94810998
:100860000E9487039FEFA3EDB0E39150A040B040FA
:10087000E1F700C0000008958BE591E00E9491002F
:10088000B6CFCF93DF932FEF89E698E121508040D8
:100890009040E1F700C0000061E671E08AE392E079
:1008A0000E94F709892B39F447E651E060E081E0C6
:1008B0000E94A700B2C01092350310923403E09159
:1008C0003403F0913503E65CFD4F80818D3049F0B3
:1008D000E0913403F0913503E65CFD4F80818E3664
:1008E00099F48091340390913503019690933503E8
:1008F00080933403E4CF80913403909135030196C3
:100900009093350380933403E0913403F0913503E1
:10091000E65CFD4F80818C3271F7809134039091B9
:1009200035030296909335038093340380E090E082
:1009300016C0E0913403F0913503E65CFD4F208151
:10094000FC01E751FD4F20832091340330913503A2
:100950002F5F3F4F309335032093340301968D3042
:1009600091053CF380913403909135030196909367
:10097000350380933403E0913403F0913503E75C51
:10098000FD4F80818A3071F780EC0E944900C0E001
:10099000D0E024C0E0913403F0913503E65CFD4FD4
:1009A00080810E945E00E0913403F0913503E65CA3
:1009B000FD4F8081FE01E850FD4F8083809134031C
:1009C00090913503019690933503809334032196DB
:1009D000C031D10519F480E80E944900E091340348
:1009E000F0913503E65CFD4F80818D3019F0CF31F9
:1009F000D10584F21092350310923403EAE3F2E059
:100A000001900020E9F73197AF014A53524060E06E
:100A100070E08AE392E00E94D70910923402DF91DD
:100A2000CF9108950F931F93CF93DF93CDB7DEB788
:100A30002A970FB6F894DEBF0FBECDBF9F938F935A
:100A400082E791E09F938F938E010F5F1F4F1F935B
:100A50000F930E943E0AC8010E9481090E9441042E
:100A60000F900F900F900F900F900F902A960FB647
:100A7000F894DEBF0FBECDBFDF91CF911F910F91D4
:100A80000895EF92FF920F931F93CF93DF93CDB70B
:100A9000DEB7E2970FB6F894DEBF0FBECDBF10925F
:100AA0003503109234038CE3E8EFF2E0DF011D928E
:100AB0008A95E9F70E94730060E875E280E090E0B3
:100AC0000E944F0978944EE751E060E081E00E9477
:100AD000A700BFEF2BE782E9B15020408040E1F74B
:100AE00000C000000E94BF004FE851E060E081E0DC
:100AF0000E94A7000E94F7030E94BF008091340269
:100B0000813009F0C1C00E94CC01882309F4B8C02B
:100B10000E94BF0042E951E060E081E00E94A7002E
:100B20009FEFA3EDB0E39150A040B040E1F700C0CB
:100B300000000E94BF0080913202909133020E9417
:100B400012052FEF8BE792E9215080409040E1F7AA
:100B500000C000006EE971E088EF92E00E94F709A2
:100B6000892B49F18AB384608ABB8BB384608BBBC9
:100B700000E010E019C0809130029091310201979D
:100B8000B9F061EA71E088EF92E00E94F709892BE1
:100B900079F4AFEFB9E628E1A150B0402040E1F789
:100BA00000C000000F5F1F4F083582E018071CF3DC
:100BB0008BB38B6F8BBB61EA71E088EF92E00E9490
:100BC000F709892B19F08BB38B6F8BBB65EA71E04A
:100BD00088EF92E00E94F709892BC9F185E2E9E7E5
:100BE000F0E08E010F5F1F4FD80101900D928A95A2
:100BF000E1F7FE01B6968DE0DF011D928A95E9F7D7
:100C00006FED72E0C8010E94DE09F801019000203A
:100C1000E9F731970F2EFCE2EF2EF12CF02DF18247
:100C2000E08265E372E0C8010E94DE09F8010190EC
:100C30000020E9F73197F182E08266E373E0C801B2
:100C40000E94DE09B80180E690E00E948E020E94B8
:100C5000BF0080913202909133020E949B014AEAC8
:100C600051E060E081E00E94A7000E948703BFEF8F
:100C700023ED80E3B15020408040E1F700C0000048
:100C8000109234020E94BF0044EB51E060E081E02A
:100C90000E94A7008EE0E9EEF2E0DF011D928A9546
:100CA000E9F78CE3E8EFF2E0DF011D928A95E9F7BE
:100CB000E2960FB6F894DEBF0FBECDBFDF91CF91A5
:100CC0001F910F91FF90EF9008951ABA87E886B9A7
:100CD00080E487B9089597B18F70982B97B986B142
:100CE000806486B9349BFECF85E38A95F1F70000D6
:100CF00024B185B190E0982F8827820F911D089527
:100D0000CF93DF930E9465060E9473000E94BF008C
:100D100084EC91E00E94910084EC0E94490080E004
:100D20000E946B06EC01CC3281E0D807B4F44EECA3
:100D300051E060E081E00E94A700C83ED34034F457
:100D400049ED51E060E081E00E94A70081E090E081
:100D5000909331028093300206C047EE51E060E08C
:100D600081E00E94A700DF91CF910895CF93DF9398
:100D7000CDB7DEB7A3970FB6F894DEBF0FBECDBFD9
:100D80000E94730060E875E280E090E00E944F09E5
:100D900078944EE751E060E081E00E94A7002FEFD9
:100DA0008BE792E9215080409040E1F700C00000BD
:100DB0000E94BF004FE851E060E081E00E94A70080
:100DC0000E94F7030E94BF004FEE51E060E081E017
:100DD0000E94A70083E2EBEAF0E0DE0111960190A9
:100DE0000D928A95E1F7BE016F5F7F4F80E690E03C
:100DF0000E948E022FEF8BE792E9215080409040B5
:100E0000E1F700C000000E94BF00A3960FB6F8945F
:100E1000DEBF0FBECDBFDF91CF9108958AB3826050
:100E20008ABB8AB38B7F8ABBCA9B04C08BB38260A8
:100E30008BBB08958BB38D6F8BBB089587B3806494
:100E400087BB089587B3806887BB87B3806187BB02
:100E500087B3806287BB87B3886087BB87B38F7B8C
:100E600087BB0895882321F087B3806887BB0895E6
:100E700087B38F7787BB0895882321F087B380617C
:100E800087BB089587B38F7E87BB0895882321F0A1
:100E900087B3806287BB089587B38F7D87BB089532
:100EA000882321F08BB388608BBB08958BB3877F39
:100EB0008BBB089587B3807408950E941E070E941B
:100EC000730041E052E060E081E00E94A7000E94D0
:100ED000D40764E082E00E949E0884E790E00E94CC
:100EE0003F098FE690E00E942E090E9405098823A1
:100EF00021F086EE92E00E946D0886EE92E0089561
:100F000078948EB58C608EBD89B7806189BF81E190
:100F10009AE79BBD8ABD0E94730046E152E060E003
:100F200081E00E94A7000E945D070E9419010E94B3
:100F30000E070E9480060E9441058091DD0290917B
:100F4000DE024497ECF60E94B6068091280290914A
:100F500029020197A9F68AB384608ABB8BB38460A7
:100F60008BBBC0E0D0E018C080913002909131027C
:100F70000197B1F061EA71E088EF92E00E94F70911
:100F8000892B71F42FEF89E698E121508040904041
:100F9000E1F700C000002196C83522E0D20724F313
:100FA0008BB38B6F8BBBACCF0E94220780E00E947B
:100FB000320781E00E943C0708951F93CF93DF938F
:100FC000182F80E00E944607D0E0C0E020C027E054
:100FD00030E02C1B3109812F90E002C09595879558
:100FE0002A95E2F780FF04C081E00E94500703C009
:100FF00080E00E94500781E00E944607DD0F0E94BA
:101000005A078111D16080E00E944607CF5FC83047
:10101000F0F28D2FDF91CF911F910895CF9380E053
:101020000E943C078FEF0E94DD07C82F81E00E94DD
:101030003C078C2FCF910895CF92DF92EF92FF92D1
:101040000F931F93CF93DF937C016B01D42FC0E0EC
:101050000EC08C2F90E08601080F191FF701E80FD2
:10106000F91F80810E94DD07F8018083CF5FCD17D3
:1010700080F3DF91CF911F910F91FF90EF90DF9060
:10108000CF9008950F931F93CF93DF938C01D62FAA
:10109000C0E007C0F801EC0FF11D80810E94DD0760
:1010A000CF5FCD17B8F3DF91CF911F910F910895C6
:1010B000CF93DF93C82FD62F80E00E943C078C2F60
:1010C0008F7180620E94DD078D2F0E94DD0781E015
:1010D0000E943C07DF91CF910895CF93DF93EC01FD
:1010E00080E00E943C0781E60E94DD0740913B03BF
:1010F000BE01CE010E941C0881E00E943C0760E412
:1011000087E00E945808DF91CF91089580E00E9407
:101110003C0782EE0E94DD0781E00E943C0760E709
:1011200087E00E94580880E00E9432076BE080E070
:101130000E94580881E00E943207089560933B03A3
:10114000682F85E00E94580860E081E10E945808FD
:1011500060913B0382E10E94580860E083E10E94B5
:10116000580860E084E10E94580860E085E10E9430
:10117000580860E086E10E94580866E086E00E9418
:10118000580868E080E00E94580863E081E00E940F
:10119000580863E082E00E9458086FE484E00E94EF
:1011A000580860E08CE10E9458080E948608089563
:1011B0000F931F93CF93DF93082FEB01142F80E041
:1011C0000E943C07802F8F710E94DD07412FBE01D6
:1011D000CE010E941C0881E00E943C07DF91CF9164
:1011E0001F910F910895CF93DF931F92CDB7DEB774
:1011F00041E0BE016F5F7F4F87E10E94D80889817F
:1012000081700F90DF91CF9108950E940E0886FDA6
:1012100007C00E94F30891E0882319F090E001C014
:1012200091E0892F08950F931F93CF93DF93C82FD9
:101230008B01D42F80E00E943C078C2F8F7180623D
:101240000E94DD076D2FC8010E94420881E00E94C4
:101250003C07DF91CF911F910F910895CF93DF93BA
:10126000EC0180E00E94320745E0BE018BE00E9465
:10127000130981E00E943207DF91CF910895CF9347
:10128000DF93EC0145E0BC018AE00E94130945E0D0
:10129000BE0180E10E941309DF91CF9108952AB128
:1012A00028692AB920B5266820BDDC01CB01880F4A
:1012B000991FAA1FBB1F880F991FAA1FBB1F9C0144
:1012C000AD01220F331F441F551F220F331F441F30
:1012D000551F60E074E284EF90E00E9497098FEF61
:1012E000820F89B9DA01C9010197A109B109892FD2
:1012F0009A2FAB2FBB2780BD08958CB95D9BFECF85
:1013000008950F931F93CF93DF938C01C0E0D0E03B
:1013100003C00E947D092196F801EC0FFD1F80811A
:101320008111F7CFDF91CF911F910F910895A1E225
:101330001A2EAA1BBB1BFD010DC0AA1FBB1FEE1F4F
:10134000FF1FA217B307E407F50720F0A21BB30B9A
:10135000E40BF50B661F771F881F991F1A9469F716
:1013600060957095809590959B01AC01BD01CF0172
:101370000895FC0188279927E89421912032E9F308
:10138000293010F02E30C8F32B3241F02D3239F4D1
:10139000689404C00E941C0A820F911D2191205361
:1013A0002A30C0F31EF4909581959F4F0895DC017B
:1013B00001C06D9341505040E0F70895FB01DC01FE
:1013C0000D900020E9F7119701900D920020E1F7B0
:1013D0000895FB01DC014150504030F08D910190A7
:1013E000801919F40020B9F7881B990B0895FB01A7
:1013F00051915523A9F0BF01DC014D9145174111D1
:10140000E1F759F4CD010190002049F04D914015CC
:101410004111C9F3FB014111EFCF81E090E0019749
:101420000895BB274A3031F4992322F4BDE2909508
:1014300081959F4F0C94250A7AE0979F902D879F66
:10144000802D910D11240895BB27FB015527AA2754
:10145000880F991FAA1FA41710F0A41B8395505141
:10146000B9F7A05DAA3308F0A95DA193009779F7B9
:10147000B111B1931192CB010C94570CAEE0B0E0D6
:10148000E4E4FAE00C940F0D0D891E8986E08C834C
:101490001A8309838FEF9FE79E838D83AE01475E9A
:1014A0005F4F6F89788DCE0101960E94600AEF81AF
:1014B000F885E00FF11F10822E96E4E00C942B0DBE
:1014C000ABE0B0E0E6E6FAE00C94010D6C017B01C4
:1014D0008A01FC0117821682838181FFCCC1CE0173
:1014E00001963C01F6019381F70193FD859193FFED
:1014F00081917F01882309F4BAC1853239F493FDC3
:10150000859193FF81917F01853229F4B60190E0A6
:101510000E94670CE7CF912C212C312CFFE1F315B1
:10152000D8F08B3279F038F4803279F08332A1F43C
:10153000232D20611DC08D3261F0803369F4232D8D
:10154000216016C0832D8260382EE32DE4603E2E8C
:101550002AC0F32DF8601DC037FC2DC020ED280FE8
:101560002A3040F08E32B9F436FC81C1232D20643C
:10157000322E19C036FE06C08AE0989E200D112436
:10158000922E11C0EAE02E9E200D1124222EF32D62
:10159000F0623F2E08C08C3621F4832D8068382EEF
:1015A00002C0883641F4F70193FD859193FF819144
:1015B0007F018111B3CF982F9F7D9554933028F4EC
:1015C0000C5F1F4F9FE399830DC0833631F0833743
:1015D00071F0833509F059C021C0F80180818983F9
:1015E0000E5F1F4F88248394912C530113C0280150
:1015F000F2E04F0E511CF801A080B18036FE03C00E
:10160000692D70E002C06FEF7FEFC5010E944C0CA6
:101610004C018201F32DFF773F2E16C0280122E0F6
:10162000420E511CF801A080B18036FE03C0692D26
:1016300070E002C06FEF7FEFC5010E94410C4C01CA
:10164000F32DF0683F2E820133FC1BC0822D90E009
:1016500088169906B0F4B60180E290E00E94670C0B
:101660002A94F4CFF50137FC859137FE81915F0113
:10167000B60190E00E94670C21102A9421E0821AA2
:1016800091088114910471F7E8C0843611F089360D
:1016900041F5F80137FE07C0608171818281938135
:1016A0000C5F1F4F08C060817181072E000C880BF2
:1016B000990B0E5F1F4FF32DFF763F2E97FF09C04A
:1016C00090958095709561957F4F8F4F9F4FF068F3
:1016D0003F2E2AE030E0A3010E94A30C882E86183A
:1016E00045C0853731F4232D2F7EB22E2AE030E01D
:1016F00025C0932D997FB92E8F36C1F018F4883507
:1017000079F0B5C0803719F0883721F0B0C0E92FE3
:10171000E061BE2EB4FE0DC0FB2DF460BF2E09C0EB
:1017200034FE0AC0292F2660B22E06C028E030E021
:1017300005C020E130E002C020E132E0F801B7FE50
:1017400007C060817181828193810C5F1F4F06C049
:101750006081718180E090E00E5F1F4FA3010E94C5
:10176000A30C882E8618FB2DFF773F2E36FE0DC06A
:10177000232D2E7FA22E891458F434FE0BC032FC88
:1017800009C0832D8E7EA82E05C0B82CA32C03C0C3
:10179000B82C01C0B92CA4FE0FC0FE01E80DF11D4C
:1017A0008081803321F49A2D997EA92E09C0A2FE52
:1017B00006C0B394B39404C08A2D867809F0B3941C
:1017C000A3FC11C0A0FE06C0B21488F4280C922C11
:1017D0009B180EC0B21460F4B60180E290E00E9443
:1017E000670CB394F7CFB21418F42B1802C0982CDE
:1017F000212CA4FE10C0B60180E390E00E94670C8B
:10180000A2FE17C0A1FC03C088E790E002C088E5F3
:1018100090E0B6010CC08A2D867859F0A1FE02C076
:101820008BE201C080E2A7FC8DE2B60190E00E944D
:10183000670C891438F4B60180E390E00E94670CCD
:101840009A94F7CF8A94F301E80DF11D8081B601D7
:1018500090E00E94670C8110F5CF222009F442CE5F
:10186000B60180E290E00E94670C2A94F6CFF60160
:101870008681978102C08FEF9FEF2B96E2E10C9457
:101880001D0DFC010590615070400110D8F7809546
:1018900090958E0F9F1F0895FC016150704001903C
:1018A0000110D8F7809590958E0F9F1F0895DC0149
:1018B000FC01672F71917723E1F7329704C07C9187
:1018C0006D9370836291AE17BF07C8F308950F93AD
:1018D0001F93CF93DF93FB01238121FD03C08FEF83
:1018E0009FEF2CC022FF16C046815781248135818D
:1018F0004217530744F4A081B1819D012F5F3F4FF0
:10190000318320838C93268137812F5F3F4F37832C
:10191000268314C08B01EC01FB010084F185E02DCE
:101920000995892BE1F6D80116968D919C91179710
:10193000019617969C938E931697CE01DF91CF91C7
:101940001F910F910895FA01AA27283051F12031F3
:1019500081F1E8946F936E7F6E5F7F4F8F4F9F4F43
:10196000AF4FB1E03ED0B4E03CD0670F781F891F85
:101970009A1FA11D680F791F8A1F911DA11D6A0F53
:10198000711D811D911DA11D20D009F468943F9106
:101990002AE0269F11243019305D3193DEF6CF0105
:1019A0000895462F4770405D4193B3E00FD0C9F7CB
:1019B000F6CF462F4F70405D4A3318F0495D31FD38
:1019C0004052419302D0A9F7EACFB4E0A69597958B
:1019D000879577956795BA95C9F700976105710561
:1019E00008959B01AC010A2E0694579547953795AB
:1019F0002795BA95C9F7620F731F841F951FA01D05
:101A000008952F923F924F925F926F927F928F92A2
:101A10009F92AF92BF92CF92DF92EF92FF920F937D
:101A20001F93CF93DF93CDB7DEB7CA1BDB0B0FB687
:101A3000F894DEBF0FBECDBF09942A883988488844
:101A40005F846E847D848C849B84AA84B984C884DA
:101A5000DF80EE80FD800C811B81AA81B981CE0FD1
:101A6000D11D0FB6F894DEBF0FBECDBFED010895B6
:041A7000F894FFCF18
:101A7400303736333439353138390000000000E767
:101A8400E7E7E7E7D7D7D7D7D7536F696C206D6FF0
:101A94006973747572652C48756D69646974792C01
:101AA40054656D70657261747572652E2E00000048
:101AB4000000000000000000000000536F696C206B
:101AC4004D6F697374757265205761726E696E67C4
:101AD40020506C656173652041747461696E0053B4
:101AE4006F696C204D6F6973747572653A00546543
:101AF4006D70657261747572652E2E3A0048756D4D
:101B040069646974792E2E3A0041542B434D47443D
:101B14003D25640D0041542B434D4744413D22442F
:101B2400454C20414C4C220D00434D54493A004150
:101B3400542B434D47533D222573220D00415444F9
:101B440025733B0D004154480D000D0A00415445D6
:101B5400300D004F4B0054657874204D6F64650060
:101B640041542B434D47463D310D004572726F720F
:101B7400002B434D4752004E6F206D6573736167B0
:101B8400650041542B434D47523D25640D00475396
:101B94004D20496E697469616C697A696E670041A8
:101BA40054006E6577206D657373616765004F4EF1
:101BB400004F464600494E464F00436C6561722013
:101BC4006D73670077616974696E6720666F722050
:101BD4006D7367004144432076616C756500486508
:101BE400617679205261696E004D6F64657261742B
:101BF40065205261696E004E6F205261696E005318
:101C0400656E64696E67205761726E696E672E2E09
:101C14000052782064657669636520697320726573
:101C24006164792E2E0057656C636F6D6520746F47
:081C34002041677269636F0033
:00000001FF
